:100000000C9462000C948A000C948A000C948A0070
:100010000C948A000C948A000C948A000C948A0038
:100020000C948A000C948A000C948A000C948A0028
:100030000C948A000C948A000C948A000C948A0018
:100040000C941B040C948A000C948A000C948A0073
:100050000C948A000C948A000C948A000C948A00F8
:100060000C9465040C948A00000000002400270012
:100070002A0000000000250028002B0000000000DE
:1000800023002600290004040404040404040202DA
:100090000202020203030303030301020408102007
:1000A0004080010204081020010204081020000012
:1000B0000008000201000003040700000000000027
:1000C0000000930511241FBECFEFD8E0DEBFCDBFE7
:1000D00011E0A0E0B1E0E2EAF3E102C005900D9288
:1000E000A437B107D9F722E0A4E7B1E001C01D921F
:1000F000A934B207E1F710E0C2E6D0E004C02197CE
:10010000FE010E94C409C136D107C9F70E94B30598
:100110000C94CF090C940000833081F028F48130D6
:1001200099F08230A1F008958730A9F08830B9F0B5
:100130008430D1F4809180008F7D03C08091800055
:100140008F7780938000089584B58F7702C084B53F
:100150008F7D84BD08958091B0008F7703C080911A
:10016000B0008F7D8093B0000895CF93DF93282F48
:1001700030E0F901E255FF4F8491F901E656FF4F57
:10018000D491F901EA57FF4FC491CC2391F081112A
:100190000E948C00EC2FF0E0EE0FFF1FE458FF4FA1
:1001A000A591B491EC91ED2381E090E021F480E001
:1001B00002C080E090E0DF91CF9108951F93CF932C
:1001C000DF93282F30E0F901E255FF4F8491F901C8
:1001D000E656FF4FD491F901EA57FF4FC491CC2363
:1001E000C1F0162F81110E948C00EC2FF0E0EE0F71
:1001F000FF1FEE58FF4FA591B4919FB7F8941111CE
:1002000004C08C91D095D82302C0EC91DE2BDC93F6
:100210009FBFDF91CF911F910895CF93DF9390E01F
:10022000FC01E656FF4F2491FC01EA57FF4F8491F1
:10023000882361F190E0880F991FFC01E859FF4F76
:10024000C591D491FC01EE58FF4FA591B491611175
:1002500009C09FB7F8948881209582238883EC9108
:100260002E230BC0623061F49FB7F8948881322F3F
:10027000309583238883EC912E2B2C939FBF06C04F
:100280008FB7F894E8812E2B28838FBFDF91CF9111
:1002900008953FB7F89480912D0290912E02A0917D
:1002A0002F02B091300226B5A89B05C02F3F19F050
:1002B0000196A11DB11D3FBFBA2FA92F982F8827E6
:1002C000820F911DA11DB11DBC01CD0142E0660F41
:1002D000771F881F991F4A95D1F708958F929F9293
:1002E000AF92BF92CF92DF92EF92FF926B017C01AF
:1002F0000E9449014B015C01C114D104E104F104E5
:10030000F1F00E944901DC01CB0188199909AA0981
:10031000BB09883E9340A105B10570F321E0C21AE4
:10032000D108E108F10888EE880E83E0981EA11C30
:10033000B11CC114D104E104F10419F7DDCFFF9021
:10034000EF90DF90CF90BF90AF909F908F900895E7
:1003500008950895CF92DF92EF92FF920F931F932B
:10036000CF93DF936C017A018B01C0E0D0E0CE1512
:10037000DF0581F0D8016D918D01D601ED91FC91E1
:100380000190F081E02DC6010995892B11F021968D
:10039000EECF7E01C701DF91CF911F910F91FF90AA
:1003A000EF90DF90CF90089585ED8093BC00809111
:1003B000BC0084FDFCCF1092230208954091D60129
:1003C000262F30E0240F311D21323105DCF420913D
:1003D00023022430C9F4FC0180E090E0861758F431
:1003E0003091D6012191DC01AA54BE4FA30FB11D5B
:1003F0002C930196F3CF8091D601680F6093D601BC
:1004000080E0089581E0089582E008950895E091E4
:10041000270280912602E81730F4F0E0EA56FE4FFA
:10042000808190E008958FEF9FEF089590912702CB
:1004300080912602981750F4E92FF0E0EA56FE4F1B
:10044000208130E09F5F9093270202C02FEF3FEFA3
:10045000C90108958091260290E020912702821B15
:1004600091090895CF92DF92EF92FF920F931F931D
:10047000CF93DF937C01CB018A0120919501222348
:1004800089F0EB016B01C40ED51ECC15DD0569F0BA
:100490006991D701ED91FC910190F081E02DC701A8
:1004A0000995F3CF642F0E94DE01C801DF91CF913F
:1004B0001F910F91FF90EF90DF90CF900895CF9311
:1004C000DF931F92CDB7DEB7698320919501222378
:1004D000D1F020912402203240F021E030E0FC01F4
:1004E0003383228380E090E015C080912502E82FBD
:1004F000F0E0EB58FE4F998190838F5F8093250247
:100500008093240205C061E0CE0101960E94DE01C5
:1005100081E090E00F90DF91CF910895CF93FC019F
:10052000C48121E020939501C093740110922502AB
:10053000109224028385682B81E392E00E945F027F
:1005400090912402913208F045C0809123028111DC
:10055000FCCF82E08093230281E0809322028FEF20
:100560008093F90110921B0290931A02A5E7B1E063
:10057000EAEFF1E080E0981721F02D9121938F5F51
:10058000FACF10921C0280911C02CC0FC82BC09392
:100590001C0280912102813061F41092210280912D
:1005A0001C028093BB008091BC0083FDF8CF85ECDA
:1005B00001C085EE8093BC00809123028230E1F37C
:1005C0008091F9018F3F31F08091F901803211F073
:1005D0008091F90110922502109224021092950147
:1005E000CF9108950F931F93CF938C01C62F0E9434
:1005F0008E026C2F6460C8010E948E026C2F6B7F8C
:10060000C8010E948E0283EC90E00197F1F7CF9130
:100610001F910F9108950F931F93CF93DF938C0138
:10062000C62FD42F607F642B0E94F20280E1C89F06
:10063000B00111246D2BC801DF91CF911F910F9153
:100640000C94F202CF93DF93CDB7DEB728970FB6A5
:10065000F894DEBF0FBECDBF98E0E2E0F1E0DE012E
:10066000119601900D929A95E1F790914502981795
:1006700010F48FEF890FFE013196E80FF11DE80F9E
:10068000F11D6081606840E08DE392E028960FB62E
:10069000F894DEBF0FBECDBFDF91CF910C940B035A
:1006A000CF93DF93823028F090914202986090932C
:1006B00042028093450262E370E080E090E00E9495
:1006C0006E01609148028DE392E00E948E0268EE16
:1006D00073E080E090E00E946E0160E38DE392E0C1
:1006E0000E94F202CBE4D6E4CE010197F1F760E379
:1006F0008DE392E00E94F2022197F1F760E38DE32F
:1007000092E00E94F20283E592E00197F1F760E245
:100710008DE392E00E94F20260914202606240E04A
:100720008DE392E00E940B0384E08093430240E05B
:100730006CE08DE392E00E940B0340E061E08DE30A
:1007400092E00E940B03CBE3DFE1CE010197F1F7CA
:1007500082E08093440240E066E08DE392E00E94F4
:100760000B0340E062E08DE392E00E940B032197CF
:10077000F1F7DF91CF91089541E00E940B0381E0F2
:1007800090E00895089580E090E00895009769F062
:10079000FC0101900020E9F73197AF01481B590B8C
:1007A000BC018DE392E00C94AA0180E090E00895F2
:1007B0008F929F92AF92BF920F931F93CF93DF932D
:1007C000CDB7DEB7A1970FB6F894DEBF0FBECDBF91
:1007D00019A2423008F44AE08E010F5D1F4F842EAB
:1007E000912CA12CB12CA50194010E94A209E62F05
:1007F000B901CA0101501109EA3014F4E05D01C0E9
:10080000E95CD801EC93232B242B252B61F7C8013D
:100810000E94C603A1960FB6F894DEBF0FBECDBFEF
:10082000DF91CF911F910F91BF90AF909F908F90CC
:1008300008950E94CA091F920F920FB60F921124B9
:100840002F933F938F939F93AF93BF9380912902F0
:1008500090912A02A0912B02B0912C023091280293
:1008600023E0230F2D3720F40196A11DB11D05C0F3
:1008700026E8230F0296A11DB11D20932802809324
:10088000290290932A02A0932B02B0932C0280910C
:100890002D0290912E02A0912F02B091300201966C
:1008A000A11DB11D80932D0290932E02A0932F02C3
:1008B000B0933002BF91AF919F918F913F912F9153
:1008C0000F900FBE0F901F9018951F920F920FB6AA
:1008D0000F9211242F933F934F935F936F937F93C6
:1008E0008F939F93AF93BF93EF93FF938091B90042
:1008F000887F803609F49CC068F5883209F45BC0B3
:1009000090F4803109F454C038F4882309F4F6C017
:10091000883009F44DC0F6C0883109F44CC08032EB
:1009200009F45DC0EFC0803409F468C048F4803336
:1009300009F455C0883309F0E5C08093F901D8C0A7
:10094000803509F44FC0883509F45DC0883409F05A
:10095000D9C0D6C0883909F4C7C0A8F4883709F4CB
:1009600067C038F4883609F463C0803709F460C082
:10097000C9C0883809F4B8C0803909F45FC080382C
:1009800009F0C0C05BC0803B09F486C038F4803AEF
:1009900009F466C0883A09F47FC0B4C0803C09F409
:1009A000A7C0883C09F4A4C0883B09F48AC0AAC047
:1009B00080911C0210C090911B0280911A0298171E
:1009C00070F5E0911B0281E08E0F80931B02F0E036
:1009D000E650FE4F80818093BB0085EC86C08093FB
:1009E000F9018EC0E0911B0281E08E0F80931B0203
:1009F0008091BB00F0E0E650FE4F808390911B0297
:100A000080911A026EC0E0911B0281E08E0F8093EC
:100A10001B028091BB00F0E0E650FE4F8083809186
:100A2000220281116DC081E08093210284EA61C0BD
:100A300083E0809323021092F801CFCF8091F801D8
:100A4000803208F051C0E091F80181E08E0F809370
:100A5000F8018091BB00F0E0E852FE4F8083BDCFEB
:100A600085EC8093BC00109223028091F8018032C3
:100A700030F4E091F801F0E0E852FE4F108260910E
:100A8000F80170E0E0911D02F0911E0288ED91E006
:100A900009951092F80136C084E0809323021092E9
:100AA000D7011092D601E0911F02F0912002099522
:100AB0008091D601811105C081E08093D60110920A
:100AC000B601E091D70181E08E0F8093D701F0E06D
:100AD000EA54FE4F80818093BB009091D7018091B2
:100AE000D601981708F479CF85E88093BC000AC036
:100AF00085EC8093BC001092230204C01092F9018F
:100B00000E94D401FF91EF91BF91AF919F918F917E
:100B10007F916F915F914F913F912F910F900FBEF9
:100B20000F901F901895E1E3F2E01382128288EE95
:100B300093E0A0E0B0E084839583A683B7838EE042
:100B400091E091838083EDE3F2E01382128280E2F0
:100B500091E09183808380E2848384E1818784E0D3
:100B6000828713860895789484B5826084BD84B5A5
:100B7000816084BD85B5826085BD85B5816085BD98
:100B800080916E00816080936E0010928100809150
:100B900081008260809381008091810081608093D8
:100BA0008100809180008160809380008091B100FD
:100BB00084608093B1008091B00081608093B00028
:100BC00080917A00846080937A0080917A008260BC
:100BD00080937A0080917A00816080937A0080917E
:100BE0007A00806880937A001092C10061E08AE008
:100BF0000E940D0161E08BE00E940D0161E08CE03C
:100C00000E940D0160E083E00E940D0160E082E03F
:100C10000E940D0161E083E00E94DE0061E082E05D
:100C20000E94DE0084E00E9450031092270210927E
:100C3000260210922502109224021092230281E0D3
:100C4000809322021092210261E082E10E94DE0084
:100C500061E083E10E94DE008091B9008E7F809385
:100C6000B9008091B9008D7F8093B90088E48093AA
:100C7000B80085E48093BC0088EA91E0909320025C
:100C800080931F0289EA91E090931E0280931D02D7
:100C900010924202809147020E94500340E061E0BE
:100CA0008DE392E00E940B03CBE3DFE1CE010197DD
:100CB000F1F740E062E08DE392E00E940B032197A0
:100CC000F1F788E291E00E94C60381E00E942203CE
:100CD00084E391E00E94C60382E00E94220386E43E
:100CE00091E00E94C60368EE73E080E090E00E940D
:100CF0006E0161E08BE00E94DE0060E08AE00E940D
:100D0000DE0060E08CE00E94DE0060ED77E080E0D5
:100D100090E00E946E01C0E0D0E010E410937C00EF
:100D200080917A00806480937A0080917A0086FDB9
:100D3000FCCF609178008091790070E0782B072ECD
:100D4000000C880B990B0E947B0820E030E048ECF7
:100D50005DE30E9430096B017C0182E00E94220366
:100D600081E591E00E94C603A7019601C701B60183
:100D70000E949D09882319F08AE591E01AC0460176
:100D80005701E894B7F82FEF3FEF4FE75FE7C50152
:100D9000B4010E949D0981110FC02FEF3FEF4FE773
:100DA0005FE7C501B4010E94450818162CF48EE5D2
:100DB00091E00E94C60378C02FEF3FEF4FE75FE45A
:100DC000C701B6010E942B0918161CF482E691E0B7
:100DD000F0CF2FEF3FEF4FE75FECC701B6010E9466
:100DE000450887FDF3CF20E030E0A901C701B60137
:100DF0000E94450887FF0AC041E06DE28DE392E062
:100E00000E940B03C701B601905802C0C701B6018A
:100E10002AE037ED43EA5BE30E94D9072B013C014E
:100E20000E944A084B015C010E9479089B01AC01B9
:100E3000C301B2010E94D8072B013C014AE0C50161
:100E4000B4010E94D80341E06EE28DE392E00E947B
:100E50000B0320E030E040E251E4C301B2010E9404
:100E600030092B013C010E944A084B01A12CB12CF6
:100E70004AE0C501B4010E94D803C501B4010E9433
:100E800079089B01AC01C301B2010E94D80720E0A0
:100E900030E040E251E40E9430090E944A0880E0BC
:100EA00090E04AE00E94D80386E691E00E94C603E3
:100EB00082E00E94B500892B61F48091000190913D
:100EC0000101181619062CF40197909301018093E3
:100ED000000183E00E94B500892B61F4809100013C
:100EE00090910101833691052CF4019690930101B4
:100EF0008093000183E00E94220389E691E00E9432
:100F0000C6038090000190900101092C000CAA08F2
:100F1000BB08B7FE0FC041E06DE28DE392E00E9496
:100F20000B0366277727CB01681979098A099B0982
:100F30004AE003C04AE0C501B4010E94D80386E636
:100F400091E00E94C6036091000170910101072E9B
:100F5000000C880B990B0E947B089B01AC01C70118
:100F6000B6010E942B0918165CF460E08CE00E9428
:100F7000DE0061E08AE00E94DE0060E08BE00AC0F3
:100F800061E08CE00E94DE0061E08BE00E94DE0008
:100F900060E08AE00E94DE0068EE73E080E090E0AE
:100FA0000E946E01209709F4B9CE0E940000B6CECF
:100FB0005058BB27AA270E94F0070C94F1080E9402
:100FC000E30838F00E94EA0820F039F49F3F19F452
:100FD00026F40C94E0080EF4E095E7FB0C94DA0894
:100FE000E92F0E94020958F3BA17620773078407B2
:100FF000950720F079F4A6F50C9424090EF4E095F9
:101000000B2EBA2FA02D0B01B90190010C01CA01C2
:10101000A0011124FF27591B99F0593F50F4503E6D
:1010200068F11A16F040A22F232F342F4427585F5F
:10103000F3CF469537952795A795F0405395C9F777
:101040007EF41F16BA0B620B730B840BBAF091502F
:10105000A1F0FF0FBB1F661F771F881FC2F70EC0CE
:10106000BA0F621F731F841F48F4879577956795A1
:10107000B795F7959E3F08F0B0CF9395880F08F08D
:101080009927EE0F9795879508950E94B60808F462
:1010900081E008950E940A0988F09F5798F0B92FBF
:1010A0009927B751B0F0E1F0660F771F881F991F9D
:1010B0001AF0BA95C9F714C0B13091F00E94240912
:1010C000B1E008950C942409672F782F8827B85F22
:1010D00039F0B93FCCF3869577956795B395D9F7F5
:1010E0003EF490958095709561957F4F8F4F9F4FFF
:1010F0000895E89409C097FB3EF49095809570950B
:1011000061957F4F8F4F9F4F9923A9F0F92F96E953
:10111000BB279395F695879577956795B795F111C8
:10112000F8CFFAF4BB0F11F460FF1BC06F5F7F4F65
:101130008F4F9F4F16C0882311F096E911C0772377
:1011400021F09EE8872F762F05C0662371F096E880
:10115000862F70E060E02AF09A95660F771F881F4F
:10116000DAF7880F9695879597F90895990F0008F3
:10117000550FAA0BE0E8FEEF16161706E807F90769
:10118000C0F012161306E407F50798F0621B730B04
:10119000840B950B39F40A2661F0232B242B252B85
:1011A00021F408950A2609F4A140A6958FEF811D28
:1011B000811D089597F99F6780E870E060E00895C9
:1011C0009FEF80EC089500240A941616170618065F
:1011D0000906089500240A9412161306140605063B
:1011E0000895092E0394000C11F4882352F0BB0FCC
:1011F00040F4BF2B11F460FF04C06F5F7F4F8F4F2F
:101200009F4F089557FD9058440F551F59F05F3F69
:1012100071F04795880F97FB991F61F09F3F79F018
:1012200087950895121613061406551FF2CF46959A
:10123000F1DF08C0161617061806991FF1CF86951C
:101240007105610508940895E894BB276627772700
:10125000CB0197F908950E94B60808F48FEF08951E
:101260000E9443090C94F1080E94E30838F00E94A0
:10127000EA0820F0952311F00C94DA080C94E008A9
:1012800011240C9425090E94020970F3959FC1F363
:10129000950F50E0551F629FF001729FBB27F00D24
:1012A000B11D639FAA27F00DB11DAA1F649F662779
:1012B000B00DA11D661F829F2227B00DA11D621FC8
:1012C000739FB00DA11D621F839FA00D611D221F82
:1012D000749F3327A00D611D231F849F600D211D66
:1012E000822F762F6A2F11249F5750409AF0F1F0E9
:1012F00088234AF0EE0FFF1FBB1F661F771F881F52
:1013000091505040A9F79E3F510580F00C94DA08A7
:101310000C9425095F3FE4F3983ED4F386957795C6
:101320006795B795F795E7959F5FC1F7FE2B880FF7
:10133000911D9695879597F908950E94B608880B98
:10134000990B0895A1E21A2EAA1BBB1BFD010DC02B
:10135000AA1FBB1FEE1FFF1FA217B307E407F50765
:1013600020F0A21BB30BE40BF50B661F771F881F41
:10137000991F1A9469F760957095809590959B01D7
:10138000AC01BD01CF010895EE0FFF1F0590F49150
:10139000E02D099481E090E0F8940C94CF09F89442
:0213A000FFCF7D
:1013A2001E000000400014005400000000005F0214
:1013B2003202C30306022A021602070200000000DC
:1013C200BC03AA01C303C20350524F594543544FB1
:1013D200203130002053495354454D41204445208B
:1013E200524945474F002045515549504F2035201D
:1013F2000048756D656461643A006E616E00696EE5
:1014020066006F76660025200053657420506F6970
:041412006E743A00BA
:107E0000112484B714BE81FFF0D085E080938100F7
:107E100082E08093C00088E18093C10086E0809377
:107E2000C20080E18093C4008EE0C9D0259A86E02C
:107E300020E33CEF91E0309385002093840096BBD3
:107E4000B09BFECF1D9AA8958150A9F7CC24DD24C4
:107E500088248394B5E0AB2EA1E19A2EF3E0BF2EE7
:107E6000A2D0813461F49FD0082FAFD0023811F036
:107E7000013811F484E001C083E08DD089C08234E0
:107E800011F484E103C0853419F485E0A6D080C0E4
:107E9000853579F488D0E82EFF2485D0082F10E0AE
:107EA000102F00270E291F29000F111F8ED06801E7
:107EB0006FC0863521F484E090D080E0DECF843638
:107EC00009F040C070D06FD0082F6DD080E0C81688
:107ED00080E7D80618F4F601B7BEE895C0E0D1E017
:107EE00062D089930C17E1F7F0E0CF16F0E7DF06D8
:107EF00018F0F601B7BEE89568D007B600FCFDCFD4
:107F0000A601A0E0B1E02C9130E011968C91119780
:107F100090E0982F8827822B932B1296FA010C0160
:107F200087BEE89511244E5F5F4FF1E0A038BF0790
:107F300051F7F601A7BEE89507B600FCFDCF97BE46
:107F4000E89526C08437B1F42ED02DD0F82E2BD052
:107F50003CD0F601EF2C8F010F5F1F4F84911BD097
:107F6000EA94F801C1F70894C11CD11CFA94CF0C13
:107F7000D11C0EC0853739F428D08EE10CD085E9AC
:107F80000AD08FE07ACF813511F488E018D01DD067
:107F900080E101D065CF982F8091C00085FFFCCF94
:107FA0009093C60008958091C00087FFFCCF809118
:107FB000C00084FD01C0A8958091C6000895E0E648
:107FC000F0E098E1908380830895EDDF803219F02E
:107FD00088E0F5DFFFCF84E1DECF1F93182FE3DFCA
:107FE0001150E9F7F2DF1F91089580E0E8DFEE27F6
:047FF000FF270994CA
:027FFE00040479
:0400000300007E007B
:00000001FF
