:100000000C9462000C948A000C948A000C948A0070
:100010000C948A000C948A000C948A000C948A0038
:100020000C948A000C948A000C948A000C948A0028
:100030000C948A000C948A000C948A000C948A0018
:100040000C94C5040C948A000C948A000C948A00C9
:100050000C948A000C948A000C948A000C948A00F8
:100060000C940F050C948A00000000002400270067
:100070002A0000000000250028002B0000000000DE
:1000800023002600290004040404040404040202DA
:100090000202020203030303030301020408102007
:1000A0004080010204081020010204081020000012
:1000B0000008000201000003040700000000000027
:1000C00000002E0611241FBECFEFD8E0DEBFCDBF4B
:1000D00011E0A0E0B1E0E6E3FFE002C005900D9280
:1000E000A23BB107D9F722E0A2EBB1E001C01D921B
:1000F000AE38B207E1F710E0C2E6D0E004C02197C5
:10010000FE010E949307C136D107C9F70E944E062F
:100110000C9499070C94000008950895AF92BF9233
:10012000CF92DF92EF92FF920F931F93CF93DF93C3
:100130006C017B018B01040F151FEB015E01AE18F2
:10014000BF08C017D10759F06991D601ED91FC9114
:100150000190F081E02DC6010995892B79F7C50141
:10016000DF91CF911F910F91FF90EF90DF90CF9093
:10017000BF90AF900895833081F028F4813099F0DA
:100180008230A9F008958730A9F08830C9F0843012
:10019000B1F4809180008F7D03C0809180008F77C3
:1001A00080938000089584B58F7784BD089584B5C9
:1001B0008F7DFBCF8091B0008F778093B000089542
:1001C0008091B0008F7DF9CFCF93DF93282F30E05F
:1001D000F901E255FF4F8491F901E656FF4FD491A2
:1001E000F901EA57FF4FC491CC23A1F081110E947D
:1001F000BB00EC2FF0E0EE0FFF1FE458FF4FA5917E
:10020000B491EC91ED2381E090E009F480E0DF917E
:10021000CF91089580E090E0FACF1F93CF93DF93C2
:10022000282F30E0F901E255FF4F8491F901E6569D
:10023000FF4FD491F901EA57FF4FC491CC23A9F0A5
:10024000162F81110E94BB00EC2FF0E0EE0FFF1F74
:10025000EE58FF4FA591B4918FB7F894EC9111111E
:1002600008C0D095DE23DC938FBFDF91CF911F9123
:100270000895DE2BF8CFCF93DF9390E0FC01E65694
:10028000FF4F24918A579F4FFC0184918823D1F01E
:1002900090E0880F991FFC01E859FF4FA591B49198
:1002A000FC01EE58FF4FC591D49161110EC09FB76C
:1002B000F8948C91E22FE0958E238C932881E22391
:1002C000E8839FBFDF91CF9108958FB7F894EC91A9
:1002D000E22BEC938FBFF6CF8E50806480937C002E
:1002E00080917A00806480937A0080917A0086FD04
:1002F000FCCF809178009091790008953FB7F894F1
:100300008091690290916A02A0916B02B0916C0297
:1003100026B5A89B05C02F3F19F00196A11DB11D60
:100320003FBFBA2FA92F982F8827BC01CD01620F9C
:10033000711D811D911D42E0660F771F881F991F57
:100340004A95D1F708958F929F92AF92BF92CF9224
:10035000DF92EF92FF924B015C010E947E016B01E4
:100360007C010E947E016C197D098E099F09683EFF
:10037000734081059105A8F321E0821A9108A10834
:10038000B10888EEC80E83E0D81EE11CF11C811470
:100390009104A104B10429F7FF90EF90DF90CF9072
:1003A000BF90AF909F908F90089520911A02260FD2
:1003B0003327331F21323105ECF420913E02FC013A
:1003C00090E080E0243069F082E00895A0911A0264
:1003D0002191AC0146505E4FA40FB52FB11D2C9357
:1003E0000196861798F380911A02680F60931A029B
:1003F00080E0089581E0089510923E0281E08093AC
:10040000400210923F0261E082E10E940D0161E032
:1004100083E10E940D01E9EBF0E080818E7F808313
:1004200080818D7F808388E48093B80085E4809309
:10043000BC000895CF93DF9391E09093F901882356
:10044000B9F0C091B800D091BA008091BC008A7B0D
:100450008093BC0060E082E10E940D0160E083E1D6
:100460000E940D010E94FC01D093BA00C093B80015
:10047000DF91CF9108950895E09174028091730205
:10048000E81730F4F0E0EC52FE4F808190E00895E0
:100490008FEF9FEF089590917402809173022FEF78
:1004A0003FEF981748F4E92FF0E0EC52FE4F20811F
:1004B00030E09F5F90937402C901089580917302A8
:1004C00090917402891B990B0895CF92DF92EF925D
:1004D000FF920F931F93CF93DF937C01CB018A018F
:1004E0002091D301222389F0EB016B01C40ED51EAC
:1004F000CC15DD0569F06991D701ED91FC91019072
:10050000F081E02DC7010995F3CF642F0E94D5013A
:10051000C801DF91CF911F910F91FF90EF90DF9075
:10052000CF900895CF93DF931F92CDB7DEB7698345
:100530002091D3012223F9F020917102203258F04A
:1005400021E030E0FC013383228390E080E00F90D3
:10055000DF91CF91089580917202E82FF0E0ED5481
:10056000FE4F998190838F5F809372028093710216
:1005700081E090E0ECCF61E0CE0101960E94D501D0
:10058000F7CFCF92DF92EF92FF920F931F93CF930B
:10059000DF93FC01C48121E02093D301C093B20119
:1005A00010927202109271028385682B86E792E0A6
:1005B0000E949202D0917102D13208F092C00E9442
:1005C0007E016B017C0180913E02811165C082E059
:1005D00080933E0281E0809340028FEF80933D0242
:1005E00010926202D0936102A3EBB1E0E1E4F2E089
:1005F00080E0D81385C01092630280916302CC0F13
:10060000C82BC093630280913F02813009F07CC007
:1006100010923F020E947E016B017C018091630277
:100620008093BB008091F5019091F601A091F701B4
:10063000B091F801892B8A2B8B2B99F00E947E01B7
:100640000091F5011091F6012091F7013091F80128
:100650006C197D098E099F090617170728073907A6
:10066000E0F18091BC0083FDD9CF85EC8093BC0084
:100670000E947E016B017C0180913E02823009F470
:1006800045C080913D028F3F61F180913D028032F3
:1006900041F180913D0225C08091F5019091F601D4
:1006A000A091F701B091F801892B8A2B8B2B09F4CB
:1006B0008ACF0E947E010091F5011091F6012091F0
:1006C000F7013091F8016C197D098E099F09061711
:1006D00017072807390708F076CF8091F4010E94A8
:1006E0001A0210927202109271021092D301DF91DD
:1006F000CF911F910F91FF90EF90DF90CF900895D1
:100700009D9191938F5F75CF85EEB0CF8091F5016C
:100710009091F601A091F701B091F801892B8A2BF5
:100720008B2B09F4A9CF0E947E010091F501109155
:10073000F6012091F7013091F8016C197D098E09BD
:100740009F09061717072807390708F095CFC5CF67
:10075000089590E080E00895FC0101900020E9F701
:100760003197AF01481B590BBC0182E892E00C9411
:100770008E0085ED8093BC008091F5019091F6018B
:10078000A091F701B091F8010796A11DB11D23E0DA
:10079000B695A795979587952A95D1F72091BC0096
:1007A00024FD03C010923E0208954091F50150913E
:1007B000F6016091F7017091F801452B462B472B0C
:1007C00069F30097A105B10541F025E32A95F1F7FA
:1007D00000000197A109B109E1CF8091F4010C94C7
:1007E0001A020F931F93CF938C01C62F0E94C10250
:1007F0006C2F6460C8010E94C1026C2F6B7FC8011E
:100800000E94C10283EC90E00197F1F7CF911F9114
:100810000F9108950F931F93CF93DF938C01D62FE1
:10082000C42F607F642B0E94F10380E1D89FB00148
:1008300011246C2BC801DF91CF911F910F910C9463
:10084000F103CF93DF93CDB7DEB728970FB6F894B7
:10085000DEBF0FBECDBF98E0E0E0F1E0DE01119613
:1008600001900D929A95E1F790918A02981710F4F1
:100870008FEF890F90E0880F991F21E030E02C0F57
:100880003D1F820F931FFC016081606840E082E899
:1008900092E028960FB6F894DEBF0FBECDBFDF9171
:1008A000CF910C940A04CF93DF93823028F090917B
:1008B000870298609093870280938A0262E370E0D7
:1008C00080E090E00E94A30160918D0282E892E0B6
:1008D0000E94C10268EE73E080E090E00E94A301F4
:1008E00060E382E892E00E94F103CBE4D6E4CE011B
:1008F0000197F1F760E382E892E00E94F10321970B
:10090000F1F760E382E892E00E94F10383E592E070
:100910000197F1F760E282E892E00E94F1036091B2
:100920008702606240E082E892E00E940A0484E06C
:100930008093880240E06CE082E892E00E940A0422
:1009400040E061E082E892E00E940A04CBE3DFE14C
:10095000CE010197F1F782E08093890240E066E0E2
:1009600082E892E00E940A0440E062E082E892E0BD
:100970000E940A042197F1F7DF91CF91089541E099
:100980000E940A0481E090E008951F920F920FB632
:100990000F9211242F933F938F939F93AF93BF9305
:1009A0008091650290916602A0916702B091680201
:1009B0003091640223E0230F2D3758F50196A11DD5
:1009C000B11D209364028093650290936602A09308
:1009D0006702B09368028091690290916A02A091C7
:1009E0006B02B0916C020196A11DB11D809369024A
:1009F00090936A02A0936B02B0936C02BF91AF9187
:100A00009F918F913F912F910F900FBE0F901F904C
:100A1000189526E8230F0296A11DB11DD2CF1F9273
:100A20000F920FB60F9211242F933F934F935F9322
:100A30006F937F938F939F93AF93BF93EF93FF93A6
:100A40008091B900887F803609F44AC0F0F5883279
:100A500009F4A7C018F5803109F49BC0B8F48823C5
:100A600009F4F9C0883009F494C0FF91EF91BF9167
:100A7000AF919F918F917F916F915F914F913F9136
:100A80002F910F900FBE0F901F901895883109F489
:100A900088C0803251F780933D0214C0803409F43D
:100AA0009DC040F48033B9F38833F9F680933D025A
:100AB00085ECB0C0803509F485C0883509F496C04E
:100AC000883499F60E94B903D0CF883909F48CC0D4
:100AD00038F5883729F050F4883611F0803729F638
:100AE00083E080933E0210923C0257C0883809F49C
:100AF0007BC0803919F0803809F0B7CF80913C0273
:100B0000803208F071C0E0913C0281E08E0F80934A
:100B10003C028091BB00F0E0E45EFD4F80833DC06D
:100B2000803B39F0E0F4803A09F479C0883A09F062
:100B30009CCF84E080933E0210921B0210921A0216
:100B4000E0916F02F0917002099580911A02811173
:100B50000FC081E080931A021092FA0109C0803C14
:100B600009F4A6CF883C09F4A3CF883B09F07DCFD8
:100B7000E0911B0281E08E0F80931B02F0E0E650B3
:100B8000FE4F80818093BB0090911B0280911A02DE
:100B900029C0809163028093BB0085EC8093BC00E8
:100BA00064CF9091620280916102981758F5E091AC
:100BB000620281E08E0F80936202F0E0EF5BFD4FF6
:100BC0008081E9CFE091620281E08E0F8093620222
:100BD0008091BB00F0E0EF5BFD4F8083909162025B
:100BE000809161029817C8F285E8D8CFE09162023F
:100BF00081E08E0F809362028091BB00F0E0EF5B9A
:100C0000FD4F80838091400281115CCF81E0809311
:100C10003F0284EA8093BC0010923E0226CF85EC0E
:100C20008093BC0010923E0280913C02803230F4EE
:100C3000E0913C02F0E0E45EFD4F108260913C02E6
:100C400070E0E0916D02F0916E028CE192E0099506
:100C500010923C020ACF10923D0234CFE6E7F2E058
:100C60001382128288EE93E0A0E0B0E08483958343
:100C7000A683B7838CE091E091838083E2E8F2E081
:100C8000138212828EE191E09183808380E28483DB
:100C900084E1818784E0828713860895789484B5FF
:100CA000826084BD84B5816084BD85B5826085BD68
:100CB00085B5816085BD80916E00816080936E00F6
:100CC00010928100809181008260809381008091E8
:100CD0008100816080938100809180008160809399
:100CE00080008091B10084608093B1008091B00059
:100CF00081608093B00080917A00846080937A0054
:100D000080917A00826080937A0080917A0081607D
:100D100080937A0080917A00806880937A001092A4
:100D2000C10061E08AE00E943B0161E08BE00E942B
:100D30003B0161E08CE00E943B0160E083E00E94A7
:100D40003B0160E082E00E943B0161E083E00E94A1
:100D50000D0161E082E00E940D0184E00E945304D5
:100D60001092740210927302109272021092710229
:100D70000E94FC018CE890E09093700280936F02D7
:100D80008DE890E090936E0280936D02109287023E
:100D900080918C020E94530440E061E082E892E07E
:100DA0000E940A04CBE3DFE1CE010197F1F740E0B6
:100DB00062E082E892E00E940A042197F1F786E25D
:100DC00091E00E94AC0381E00E94210481E391E064
:100DD0000E94AC0361E08BE00E940D0161E08AE0BB
:100DE0000E940D0160E08CE00E940D0183E00E94F2
:100DF000210485E491E00E94AC0360ED77E080E09F
:100E000090E00E94A301C0E0D0E082E00E942104B3
:100E100086E591E00E94AC038FE00E946C01813076
:100E2000924054F083E691E00E94AC0360E08BE0D6
:100E30000E940D011092750280E10E946C018039C0
:100E4000914044F48BE691E00E94AC0361E08BE0BA
:100E50000E940D018EE00E946C01803991400CF0DF
:100E600042C01092750283E00E94210484E791E061
:100E70000E94AC0368EE73E080E090E00E94A30162
:100E8000809175028130C9F560E08AE00E940D0111
:100E900061E08CE00E940D0183E00E94210488E85B
:100EA00091E00E94AC0383E00E94E400892B41F4AE
:100EB00083E00E94E400892BD9F381E080937502DE
:100EC00082E00E94E400892B11F41092750264E61E
:100ED00070E080E090E00E94A301209709F495CF94
:100EE0000E94000092CF80E10E946C018039914005
:100EF0003CF681E080937502C3CF61E08AE00E94F6
:100F00000D0160E08CE00E940D0183E00E9421044D
:100F10008DE991E00E94AC0368EE73E080E090E020
:100F20000E94A301C0CFEE0FFF1F0590F491E02DAA
:060F30000994F894FFCFC4
:100F36000000400014005400000000009202650208
:100F4600A9033B025E024B023C0200000000BF0404
:100F56008E00A903A803546F7069636F7320494913
:100F660000436F6E742E204E6976656C2064652092
:100F76006167756100426F6D6261203A2041706160
:100F86006761646120004E6976656C204167756112
:100F96003A20004C6C656E6F202000566163696FC5
:100FA600202020004465706F7369746F20696E6637
:100FB6002E20566163696F00426F6D62613A204F61
:100FC6004E202020202020202020202000426F6D4F
:100FD60062613A204F4646202020202020202020F3
:020FE6002000E9
:00000001FF
